:1000000012C04CC15AC12AC029C028C027C026C06E
:1000100025C01FC123C022C021C020C01FC01EC0D8
:100020001DC01CC01BC011241FBECFE5D4E0DEBF25
:10003000CDBF10E0A0E6B0E0E2E4FAE002C0059037
:100040000D92AC3AB107D9F720E0ACEAB0E001C0BC
:100050001D92A03EB207E1F73FD1F1C4D1CFEFE34B
:10006000FCE93197F1F700C00000982F92959F703E
:10007000611117C0906195BBF5E3FA95F1F70000A7
:10008000AC98EFE9FFE03197F1F700C0000066237C
:1000900051F0806385BBF5E3FA95F1F70000AC9869
:1000A00008959063E8CF8F7D8061F4CF8A3031F47A
:1000B00060E080ECD4DF80E090E0089561E0FACF6A
:1000C0000F931F93CF938C01C0E0F801EC0FF11D4B
:1000D0008491811104C0CF911F910F910895CF5F3A
:1000E000849161E0BCDFF1CFCF932AE040EB50E098
:1000F000A8D1C0E0EC2FF0E0E055FF4F80818111E6
:1001000002C0CF910895CF5F61E0A9DFF3CF611105
:1001100002C08068A4CF613019F460E0806CFACF2F
:10012000089560E080E49BDF61E08FEF98DF61E09D
:1001300083E895DF61E087E892DF61E08FE88FDF99
:1001400061E081E88CDF61E081E889DF61E08FEFC9
:1001500086DF60E088E483DF61E08CE780DF61E0D8
:1001600081E87DDF61E089E97ADF61E088EF77DFB0
:1001700061E089E974DF61E081E871DF61E08CE7CB
:100180006EDF60E080E56BDF61E081E068DF61E009
:1001900083E065DF61E087E062DF61E08FE05FDFE1
:1001A00061E08FE35CDF61E08FE059DF61E087E0D1
:1001B00056CFC0982FEF81EE94E0215080409040C0
:1001C000E1F700C00000C09A2FEF81EE94E02150CB
:1001D00080409040E1F700C00000089560E080E8B2
:1001E0003EDF1F9283E08F938EE690E09F938F9384
:1001F00057D12FEF83ED90E3215080409040E1F7FD
:1002000000C000000F900F900F900F90089520E015
:1002100030E02817390709F40895EFE3FCE9319736
:10022000F1F700C00000C29AEFE3FCE93197F1F763
:1002300000C00000C2982F5F3F4FEBCF20B3822F4A
:10024000817090E081990296869904968799089624
:1002500008951F920F920FB60F9211248F939F93C0
:10026000AF93BF938091AC009091AD00A091AE0090
:10027000B091AF000196A11DB11D8093AC00909389
:10028000AD00A093AE00B093AF00BF91AF919F912E
:100290008F910F900FBE0F901F9018951F920F9285
:1002A0000FB60F9211248F9382E08093D9008F9123
:1002B0000F900FBE0F901F9018951F920F920FB6C0
:1002C0000F9211248F9383E08093D9008F910F9028
:1002D0000FBE0F901F901895C7E0C7BB88B387600B
:1002E00088BB82B38C6082BB2FEF83ED90E32150FB
:1002F00080409040E1F700C000008FE384BB2FEF07
:1003000081EE94E0215080409040E1F700C0000071
:1003100082E185BB8FE891E00197F1F700C0000012
:10032000AC989FEF21EE84E0915020408040E1F7AF
:1003300000C0000060E088E292DE60E081E08FDED5
:1003400060E086E08CDE60E08CE089DE60E081E0E9
:1003500086DE60E081E083DE80E690E09093DD0061
:100360008093DC00C3BF81E089BF8BB7806C8BBFFB
:1003700085B7826085BF1F9283E08F9380E890E00D
:100380009F938F938DD00F900F900F900F9002E955
:1003900010E088E9E82E80E0F82E9FE9C92E90E071
:1003A000D92EC0E0D0E09FEF29E688E191502040AF
:1003B0008040E1F700C00000C19AFBDE12BE9FEF53
:1003C00020E782E0915020408040E1F700C000002B
:1003D000CE011DDF9FEF20E782E09150204080405A
:1003E000E1F700C00000C198CE0111DF9FEF20E7C8
:1003F00082E0915020408040E1F700C0000060E0C2
:1004000080E82DDEDF93CF931F930F9349D082B7FF
:100410001F928F93FF92EF9243D010DF1F928F9322
:10042000DF92CF923DD021968DB79EB70C960FB636
:10043000F8949EBF0FBE8DBFC835D10509F0B3CF6C
:10044000B0CFBB272A3051F4992342F4BDE29095F6
:100450008095709561957F4F8F4F9F4F01C0BB274F
:10046000FA01A62F6217710581059105330B30FB48
:1004700066F0AA27660F771F881F991FAA1FA21769
:1004800010F0A21B63953850A9F7A05DAA3308F0BD
:10049000A95DA19336F7B111B1931082CA01FAC1D7
:1004A000A0E0B0E0E5E5F2E0A3C2AE014B5F5F4F34
:1004B000FA0161917191AF018091DC009091DD00B2
:1004C00002D0E2E0B1C2ACE0B0E0E8E6F2E080C227
:1004D0006C017B018A01FC0117821682838181FFF6
:1004E000C0C19AE0292ECE0101964C01F6019381FC
:1004F000F70193FD859193FF81917F01882309F492
:1005000017C1853239F493FD859193FF81917F0165
:10051000853221F4B60190E0CDD1E8CF512C312CB9
:1005200020E0203238F48B3201F188F48032F1F08F
:10053000833201F127FD32C030ED380F3A3010F52B
:1005400026FF1AC0529C300D1124532E05C08D3247
:1005500079F0803379F72160F70193FD859193FF5E
:1005600081917F018111DDCF19C022602460F4CF19
:100570002860F2CF2061F0CF329C300D1124332E51
:100580002062EACF8E3221F426FDD2C02064E4CF6F
:100590008C3611F42068E0CF8836F1F2982F9F7DD9
:1005A00095549330D0F08336A9F18337C9F1833560
:1005B00009F067C03801F2E06F0E711CF801A080ED
:1005C000B18026FF42C0652D70E0C5012C874CD15B
:1005D0002C012C852068830109C00C5F1F4FFFE3AD
:1005E000F98344244394512C54012F7723FD05C0F3
:1005F000832D90E04816590658F1732C411451048C
:1006000079F5772009F472CFB60180E290E052D1FB
:100610007A94F7CFF801808189830E5F1F4FE1CF75
:100620003801F2E06F0E711CF801A080B18026FF46
:1006300009C0652D70E0C5012C8721D12C018301F3
:100640002C85D3CF6FEF7FEFF6CF6FEF7FEFBDCF6E
:10065000B60180E290E02C872DD13A942C85C8CF4A
:10066000F50127FD859127FF81915F01B60190E09B
:100670002C8720D12C8571107A94F1E04F1A510803
:10068000BDCF843611F08936A1F5F80127FF28C0C7
:1006900060817181828193810C5F1F4F2F76722E52
:1006A00097FF09C090958095709561957F4F8F4F0A
:1006B0009F4F2068722E2AE030E0A4012BD1A82E93
:1006C000A81876FE5DC0372D3E7FA51408F094C0B3
:1006D00074FE04C072FC02C0372D3E7EB52C52C0A1
:1006E00060817181072E000C880B990B0E5F1F4FE4
:1006F000D5CF8537A9F42F7E722E2AE030E0F8019D
:1007000077FE37C060817181828193810C5F1F4FBA
:10071000A40100D1A82EA818F72DFF777F2ED1CFE6
:10072000F22FF97F7F2E8F3609F140F48835B1F032
:10073000F601868197812C96E2E166C1803751F0FF
:100740008837B1F774FE03C0872D8460782E20E1CE
:1007500030E0D5CF2F2F2061722EF4CF24FF03C0BD
:100760009F2F9660792E20E132E0C9CF28E030E05B
:10077000C6CF6081718180E090E00E5F1F4FC8CFCF
:10078000BA2C372D34FF41C0FE01EA0DF11D8081E6
:100790008033A1F5397E232F2870722E33FD44C09B
:1007A00030FF3EC0B31408F044C03A0C532C5B1821
:1007B00034FF44C0B60180E390E03C877BD03C85A9
:1007C00032FF06C031FD37C088E790E0B60172D035
:1007D000A51408F440C0AA94B12C8FEFA81AB80A47
:1007E000A80CB91CF50182915F01B60190E062D0BE
:1007F0008A149B04B9F705CFBA2CC4CF32FD02C0CE
:10080000B394C9CFB394B394C6CF832F867819F22B
:10081000F7CFB60180E290E03C874CD0B3943C85A2
:10082000B314B8F3712CC4CFB314E0F7732C7B1856
:10083000BFCF5A2CBDCF88E590E0C8CF832F8678F4
:1008400039F231FF06C08BE237FD8DE2B60190E050
:10085000BECF80E2F9CFB60180E390E02BD05A946E
:10086000B7CF8FEF9FEF67CFFC01059061507040CD
:100870000110D8F7809590958E0F9F1F0895FC0169
:100880006150704001900110D8F7809590958E0FBF
:100890009F1F0895DC01FC01672F71917723E1F719
:1008A000329704C07C916D9370836291AE17BF073D
:1008B000C8F308950F931F93CF93DF93182F092F39
:1008C000EB018B8181FD09C01FEF0FEF812F902F6E
:1008D000DF91CF911F910F91089582FF14C02E8157
:1008E0003F818C819D81281739073CF4E881F9818B
:1008F000CF0101969983888310838E819F81019611
:100900009F838E83E3CFE885F985812F0995892B15
:10091000A1F3DACFFA01AA27283051F1203181F171
:10092000E8946F936E7F6E5F7F4F8F4F9F4FAF4FF7
:10093000B1E03ED0B4E03CD0670F781F891F9A1F0A
:10094000A11D680F791F8A1F911DA11D6A0F711DBE
:10095000811D911DA11D20D009F468943F912AE0CA
:10096000269F11243019305D3193DEF6CF010895B2
:10097000462F4770405D4193B3E00FD0C9F7F6CFE3
:10098000462F4F70405D4A3318F0495D31FD4052AB
:10099000419302D0A9F7EACFB4E0A6959795879541
:1009A00077956795BA95C9F7009761057105089520
:1009B0009B01AC010A2E06945795479537952795CC
:1009C000BA95C9F7620F731F841F951FA01D089564
:1009D0002F923F924F925F926F927F928F929F924F
:1009E000AF92BF92CF92DF92EF92FF920F931F933D
:1009F000CF93DF93CDB7DEB7CA1BDB0B0FB6F894EE
:100A0000DEBF0FBECDBF09942A88398848885F842D
:100A10006E847D848C849B84AA84B984C884DF809E
:100A2000EE80FD800C811B81AA81B981CE0FD11D82
:100A30000FB6F894DEBF0FBECDBFED010895F89458
:020A4000FFCFE6
:100A420000000002000000005600000000004445C3
:100A52004255472056455253494F4E2025690A00B8
:100A62000A44454255472056455253494F4E202588
:100A72006900693D25692000543D2569200A004826
:0C0A8200433136313D2569202020000062
:00000001FF
