:1000000012C0FCC00AC12AC029C028C027C026C00F
:1000100025C0CFC023C022C021C020C01FC01EC029
:100020001DC01CC01BC011241FBECFE5D4E0DEBF25
:10003000CDBF10E0A0E6B0E0E4E6FAE002C0059033
:100040000D92A03BB107D9F720E0A0EBB0E001C0D2
:100050001D92A43EB207E1F71DD102C5D1CFEFE357
:10006000FCE93197F1F700C00000982F92959F703E
:10007000611117C0906195BBF5E3FA95F1F70000A7
:10008000AC98EFE9FFE03197F1F700C0000066237C
:1000900051F0806385BBF5E3FA95F1F70000AC9869
:1000A00008959063E8CF8F7D8061F4CF8A3031F47A
:1000B00060E080ECD4DF80E090E0089561E0FACF6A
:1000C0000F931F93CF938C01C0E0F801EC0FF11D4B
:1000D0008491811104C0CF911F910F910895CF5F3A
:1000E000849161E0BCDFF1CFCF932AE044EB50E094
:1000F0008DD1C0E0EC2FF0E0EC54FF4F80818111F6
:1001000002C0CF910895CF5F61E0A9DFF3CF611105
:1001100002C08068A4CF613019F460E0806CFACF2F
:10012000089560E080E49BDF61E08FEF98DF61E09D
:1001300083E895DF61E087E892DF61E08FE88FDF99
:1001400061E081E88CDF61E081E889DF61E08FEFC9
:1001500086DF60E088E483DF61E08CE780DF61E0D8
:1001600081E87DDF61E089E97ADF61E088EF77DFB0
:1001700061E089E974DF61E081E871DF61E08CE7CB
:100180006EDF60E080E56BDF61E081E068DF61E009
:1001900083E065DF61E087E062DF61E08FE05FDFE1
:1001A00061E08FE35CDF61E08FE059DF61E087E0D1
:1001B00056CF1F920F920FB60F9211248F939F93D9
:1001C000AF93BF938091B0009091B100A091B20025
:1001D000B091B3000196A11DB11D8093B000909322
:1001E000B100A093B200B093B300BF91AF919F91C3
:1001F0008F910F900FBE0F901F9018951F920F9226
:100200000FB60F9211248F9382E08093DD008F91BF
:100210000F900FBE0F901F9018951F920F920FB660
:100220000F9211248F9383E08093DD008F910F90C4
:100230000FBE0F901F90189560E080E810DF1F92AE
:1002400083E08F938EE690E09F938F930ED12FEFF4
:1002500083ED90E3215080409040E1F700C0000022
:100260000F900F900F900F9008952FEF85EA9EE06A
:10027000215080409040E1F700C00000C0982FEF6F
:1002800085EA9EE0215080409040E1F700C00000E8
:10029000C09A089583E087BBC09A82B38C6082BB0A
:1002A0002FEF81EE94E0215080409040E1F700C0B4
:1002B00000008FE384BB2FEF81EE94E0215080405B
:1002C0009040E1F700C0000082E185BB8FE891E03B
:1002D0000197F1F700C00000AC989FEF21EE84E099
:1002E000915020408040E1F700C0000060E088E2CB
:1002F000B6DE60E081E0B3DE60E086E0B0DE60E0C4
:100300008CE0ADDE60E081E0AADE60E081E0A7DEA7
:1003100080E690E09093E1008093E00080E890E038
:10032000B7D080E48FBD8DE08EBD88E09DE39BBD9E
:100330008ABD87E083BF81E089BF8BB7806C8BBFAC
:1003400085B7826085BF789477DF47E8E42E40E088
:10035000F42E0EE810E0CEE9D0E08091DD0082308E
:10036000E1F78091B0009091B100A091B200B091FE
:10037000B30022B7BA2FA92F982F8827820F911D7B
:10038000A11DB11D8093D5009093D600A093D700F6
:10039000B093D80060E080E862DE82B71F928F934E
:1003A000FF92EF9262D08091B0009091B100A09145
:1003B000B200B091B300BF93AF939F938F931F93FD
:1003C0000F9353D08091D8008F938091D7008F9353
:1003D0008091D6008F938091D5008F93DF93CF9338
:1003E00044D043DF12BE1092B0001092B1001092C0
:1003F000B2001092B3001092DD008DB79EB7409608
:100400000FB6F8949EBF0FBE8DBFA7CFBB272A3073
:1004100051F4992342F4BDE29095809570956195D1
:100420007F4F8F4F9F4F01C0BB27FA01A62F621746
:10043000710581059105330B30FB66F0AA27660F25
:10044000771F881F991FAA1FA21710F0A21B639580
:100450003850A9F7A05DAA3308F0A95DA19336F73B
:10046000B111B1931082CA0126C2A0E0B0E0EAE364
:10047000F2E0CFC2AE014B5F5F4FFA016191719123
:10048000AF018091E0009091E1002ED0E2E0DDC26A
:100490000F931F93CF93DF93E091E000F091E10081
:1004A000238121FF13C0EC0100E010E089916091ED
:1004B000E0007091E100DB011896ED91FC91199735
:1004C00081110CC08AE00995892B11F00FEF1FEF05
:1004D000C801DF91CF911F910F9108950995892B44
:1004E00029F30FEF1FEFE2CFACE0B0E0E9E7F2E075
:1004F00080C26C017B018A01FC0117821682838114
:1005000081FFC0C19AE0292ECE0101964C01F6016F
:100510009381F70193FD859193FF81917F0188235A
:1005200009F417C1853239F493FD859193FF8191C8
:100530007F01853221F4B60190E0CDD1E8CF512C76
:10054000312C20E0203238F48B3201F188F48032F3
:10055000F1F0833201F127FD32C030ED380F3A302F
:1005600010F526FF1AC0529C300D1124532E05C0E1
:100570008D3279F0803379F72160F70193FD859111
:1005800093FF81917F018111DDCF19C0226024602A
:10059000F4CF2860F2CF2061F0CF329C300D1124CF
:1005A000332E2062EACF8E3221F426FDD2C02064A1
:1005B000E4CF8C3611F42068E0CF8836F1F2982F22
:1005C0009F7D95549330D0F08336A9F18337C9F1DC
:1005D000833509F067C03801F2E06F0E711CF80135
:1005E000A080B18026FF42C0652D70E0C5012C8738
:1005F0004CD12C012C852068830109C00C5F1F4F52
:10060000FFE3F98344244394512C54012F7723FDB5
:1006100005C0832D90E04816590658F1732C4114FB
:10062000510479F5772009F472CFB60180E290E0A9
:1006300052D17A94F7CFF801808189830E5F1F4FE2
:10064000E1CF3801F2E06F0E711CF801A080B1809B
:1006500026FF09C0652D70E0C5012C8721D12C0132
:1006600083012C85D3CF6FEF7FEFF6CF6FEF7FEF56
:10067000BDCFB60180E290E02C872DD13A942C8535
:10068000C8CFF50127FD859127FF81915F01B60154
:1006900090E02C8720D12C8571107A94F1E04F1ACC
:1006A0005108BDCF843611F08936A1F5F80127FF36
:1006B00028C060817181828193810C5F1F4F2F76EA
:1006C000722E97FF09C090958095709561957F4F28
:1006D0008F4F9F4F2068722E2AE030E0A4012BD16B
:1006E000A82EA81876FE5DC0372D3E7FA51408F011
:1006F00094C074FE04C072FC02C0372D3E7EB52C3F
:1007000052C060817181072E000C880B990B0E5F1F
:100710001F4FD5CF8537A9F42F7E722E2AE030E007
:10072000F80177FE37C060817181828193810C5F0F
:100730001F4FA40100D1A82EA818F72DFF777F2EF8
:10074000D1CFF22FF97F7F2E8F3609F140F4883513
:10075000B1F0F601868197812C96E2E166C180377F
:1007600051F08837B1F774FE03C0872D8460782E6E
:1007700020E130E0D5CF2F2F2061722EF4CF24FF5F
:1007800003C09F2F9660792E20E132E0C9CF28E088
:1007900030E0C6CF6081718180E090E00E5F1F4F36
:1007A000C8CFBA2C372D34FF41C0FE01EA0DF11D30
:1007B00080818033A1F5397E232F2870722E33FD7E
:1007C00044C030FF3EC0B31408F044C03A0C532C70
:1007D0005B1834FF44C0B60180E390E03C877BD0D7
:1007E0003C8532FF06C031FD37C088E790E0B60196
:1007F00072D0A51408F440C0AA94B12C8FEFA81AA7
:10080000B80AA80CB91CF50182915F01B60190E00D
:1008100062D08A149B04B9F705CFBA2CC4CF32FD3D
:1008200002C0B394C9CFB394B394C6CF832F867854
:1008300019F2F7CFB60180E290E03C874CD0B39438
:100840003C85B314B8F3712CC4CFB314E0F7732C08
:100850007B18BFCF5A2CBDCF88E590E0C8CF832F3F
:10086000867839F231FF06C08BE237FD8DE2B601A2
:1008700090E0BECF80E2F9CFB60180E390E02BD0CC
:100880005A94B7CF8FEF9FEF67CFFC01059061506F
:1008900070400110D8F7809590958E0F9F1F089596
:1008A000FC016150704001900110D8F7809590953F
:1008B0008E0F9F1F0895DC01FC01672F7191772334
:1008C000E1F7329704C07C916D9370836291AE170B
:1008D000BF07C8F308950F931F93CF93DF93182F8B
:1008E000092FEB018B8181FD09C01FEF0FEF812FD5
:1008F000902FDF91CF911F910F91089582FF14C027
:100900002E813F818C819D81281739073CF4E88135
:10091000F981CF0101969983888310838E819F810D
:1009200001969F838E83E3CFE885F985812F099512
:10093000892BA1F3DACFFA01AA27283051F120310F
:1009400081F1E8946F936E7F6E5F7F4F8F4F9F4F63
:10095000AF4FB1E03ED0B4E03CD0670F781F891FA5
:100960009A1FA11D680F791F8A1F911DA11D6A0F73
:10097000711D811D911DA11D20D009F468943F9126
:100980002AE0269F11243019305D3193DEF6CF0125
:100990000895462F4770405D4193B3E00FD0C9F7EB
:1009A000F6CF462F4F70405D4A3318F0495D31FD58
:1009B0004052419302D0A9F7EACFB4E0A6959795AB
:1009C000879577956795BA95C9F700976105710581
:1009D00008959B01AC010A2E0694579547953795CB
:1009E0002795BA95C9F7620F731F841F951FA01D25
:1009F00008952F923F924F925F926F927F928F92C3
:100A00009F92AF92BF92CF92DF92EF92FF920F939D
:100A10001F93CF93DF93CDB7DEB7CA1BDB0B0FB6A7
:100A2000F894DEBF0FBECDBF09942A883988488864
:100A30005F846E847D848C849B84AA84B984C884FA
:100A4000DF80EE80FD800C811B81AA81B981CE0FF1
:100A5000D11D0FB6F894DEBF0FBECDBFED010895D6
:040A6000F894FFCF38
:100A640000000002000000005600000000004445A1
:100A74004255472056455253494F4E2025690A0096
:100A840048656C6C6F210054434E3D25690020433A
:100A94006F3D256C75202020202020200A004672FE
:100AA40065713D256C75487A2020202020200000A7
:00000001FF
