:100000009BC005C513C5B3C0B2C0B1C0B0C0AFC0BE
:10001000AEC0D8C4ACC0ABC0AAC0A9C0A8C0A7C05D
:10002000A6C0A5C0A4C06E616E00696E660048657A
:100030006C6C6F2E2E2E004275792E2E2E000040F5
:100040007A10F35A00A0724E18090010A5D4E800E7
:1000500000E87648170000E40B54020000CA9A3BFF
:10006000000000E1F5050000809698000000404285
:100070000F000000A0860100000010270000000013
:10008000E803000000006400000000000A00000017
:1000900000000100000000002C76D888DC674F08C3
:1000A00023DFC1DFAE59E1B1B796E5E3E453C63AC9
:1000B000E651997696E8E6C28426EB898C9B62ED40
:1000C000407C6FFCEFBC9C9F40F2BAA56FA5F490FA
:1000D000055A2AF75C936B6CF9676DC11BFCE0E471
:1000E0000D47FEF520E6B500D0ED902E03009435C7
:1000F00077050080841E080000204E0A000000C81A
:100100000C333333330F986E12831141EF8D21146A
:10011000893BE65516CFFEE6DB18D1844B381BF73A
:100120007C1D901DA4BBE424203284725E228100D9
:10013000C9F124ECA1E53D2711241FBECFE5D4E091
:10014000DEBFCDBF10E0A0E6B0E0E0ECF0E102C021
:1001500005900D92AA3AB107D9F710E0AAEAB0E0EB
:1001600001C01D92AE3DB107E1F76FD4A7C748CFDC
:10017000A1E1B0E0EDEBF0E048C73C017F876E877E
:100180006A01FC0117821682838181FD03C06FEF33
:100190007FEF54C39E012F5F3F4F398B288BF301B4
:1001A0002381EE85FF8523FD859123FF8191FF87C4
:1001B000EE87882309F43FC3853251F4EE85FF852D
:1001C00023FD859123FF8191FF87EE87853221F4FE
:1001D00090E0B3016ED6E3CF982F10E088249924E5
:1001E0001032B0F49B3269F09C3228F4903251F016
:1001F000933271F40BC09D3239F0903349F41160A1
:1002000028C01260146025C0186023C0106121C08E
:1002100017FD2AC0892F80538A3078F416FF06C054
:10022000FAE09F9E902C1124980E13C03AE0839E12
:10023000802C1124880E10620CC09E3221F416FD11
:10024000FAC2106406C09C3611F4106802C09836D9
:1002500059F4EE85FF8523FD959123FF9191FF874A
:10026000EE87992309F0BCCF892F8554833020F481
:10027000812F8061905E07C0892F8556833008F0FA
:1002800091C1812F8F7E86FD02C076E0972E6FE3AD
:10029000F62EF822953619F4F0E4FF2A07C09636B8
:1002A00019F420E8F22A02C091109A94F7FE0BC0CC
:1002B0003BE3391520F427E05CE3B52E0EC0B92CE2
:1002C000B39427E00AC047E0491528F427E0BB248F
:1002D00047E0942E02C0292DBB24C60104969D87B9
:1002E0008C87F6016081718182819381AE014F5FBD
:1002F0005F4F0B2DBED46C010981202E332400FFEB
:1003000004C003FD02C01DE209C0F1FE02C01BE2F1
:1003100005C0F2FC02C010E001C010E2C1018C7007
:100320009070892BA1F1112311F483E001C084E0C6
:10033000881510F0882409C0881AF3FC06C080E2F2
:1003400090E0B301B6D58A94D1F7112321F0812F23
:1003500090E0B301AED523FE03C006E210E00DC06D
:100360000AE210E00AC0E114F10409F0805290E0C2
:10037000B3019FD50F5F1F4F05C0EF2CFF24F0E1A5
:10038000EF22FF24F8018491882369F708C1F7FE62
:1003900012C0BC0C24FE04C08A81813309F4BA94D3
:1003A0001B141CF0BB24B3942DC0F8E0FB1550F5D2
:1003B00038E0B32E27C0F6FC25C0892D90E08C15BF
:1003C0009D054CF02CEFC2162FEFD20624F030E83A
:1003D000F32A01C09A94992049F0E2E0F0E0EC0F92
:1003E000FD1FE90DF11D80818033A1F3F7FE0AC0E6
:1003F000B92CB394892D90E0C816D90614F099242D
:1004000001C09C18F7FC03C025E030E009C01C14B3
:100410001D041CF021E030E003C096012F5F3F4F28
:10042000112311F02F5F3F4F992029F0892D90E083
:100430000196280F391F882D90E02817390714F0EE
:10044000882401C0821A4F2C5524C20189709070F3
:10045000892B31F007C080E290E0B3012AD58A945D
:100460008820C9F7112321F0812F90E0B30121D515
:1004700043FE06C007C080E390E0B3011AD58A941A
:100480008820C9F7F7FE44C08601D7FE02C000E00D
:1004900010E076010894E11CF11CE01AF10A41E039
:1004A00050E04C0F5D1FE40EF51E26014B1851085D
:1004B000892D90E0AA24BB24A81AB90A5FEF0F3F48
:1004C000150721F48EE290E0B301F3D4C016D106F3
:1004D00034F0401651061CF4F701808101C080E31E
:1004E000015010400894E11CF11C0A151B0524F072
:1004F00090E0B301DED4E2CF0C151D0539F49A81EA
:10050000963318F4953311F424FE81E390E045C04E
:100510008A81813309F00F7E90E0B301CAD499201B
:1005200091F08EE290E0B301C4D412E0E1E0F0E09B
:10053000EC0FFD1FE10FF11D1F5F808190E0B30103
:10054000B8D49A9499F744FC03C085E690E002C0C1
:1005500085E490E0B301ADD4D7FC05C0C114D1044B
:1005600041F404FF06C0D094C194D108D3948DE225
:1005700001C08BE290E0B3019CD480E305C08F5FA3
:1005800026EF3FEFC20ED31E3AE0C316D104BCF7EC
:1005900090E0B3018ED4C601C096B3018AD4CC8456
:1005A000DD8446C1933631F0933799F0933509F0E5
:1005B00055C022C0F601808189835E010894A11C88
:1005C000B11C22E030E0C20ED31E21E0E22EF12C5D
:1005D00011C0F601A080B18016FD03C06FEF7FEF60
:1005E00002C0692D70E022E030E0C20ED31EC501CA
:1005F00023D47C011F7712C0F601A080B18016FDC4
:1006000003C06FEF7FEF02C0692D70E022E030E0A1
:10061000C20ED31EC50105D47C01106813FF06C0AD
:1006200019C080E290E0B30144D48A94882D90E010
:10063000E816F906B0F30EC0F50117FD859117FF16
:1006400081915F0190E0B30134D481108A940894C1
:10065000E108F108E114F10479F7EAC0943611F0E9
:10066000993681F517FF08C0F6012081318142815A
:10067000538184E090E00AC0F601808191819C0161
:10068000442737FD4095542F82E090E0C80ED91ED4
:100690009FE6F92EF12257FF09C0509540953095FD
:1006A00021953F4F4F4F5F4F90E8F92ACA01B9019A
:1006B000AE014F5F5F4F2AE030E039D4E82EE88981
:1006C000EE1A40C0953721F41F7E2AE030E01CC0AE
:1006D000197F9F3661F0903720F4983509F0ABC050
:1006E0000FC0903739F0983709F0A5C004C028E052
:1006F00030E00AC0106114FD146020E130E004C055
:1007000014FD166020E132E017FF08C0F601608199
:1007100071818281938144E050E008C0F6018081BC
:100720009181BC0180E090E042E050E0C40ED51E13
:10073000AE014F5F5F4FFBD3E82E5889E51A8FE774
:10074000F82EF122F6FE0BC08EEFF822E91438F4F1
:10075000F4FE07C0F2FC05C09FEEF92202C01E2D78
:1007600001C0192DF4FE0DC0FE01EE0DF11D8081BA
:10077000803319F4E9EEFE2208C01F5FF2FE05C0C7
:1007800003C08F2D867809F01F5F0F2DF3FC13C077
:10079000F0FE0EC0181510F09E2C0AC09E2C980C6E
:1007A000911A182D05C080E290E0B30182D31F5F3B
:1007B0001815C8F304C0181510F4811A01C0882454
:1007C00004FF0EC080E390E0B30173D302FF1BC0AF
:1007D00001FD03C088E790E00EC088E590E00BC003
:1007E000802F867881F001FF02C08BE201C080E299
:1007F000F7FC8DE290E0B3015CD305C080E390E0AC
:10080000B30157D39A94E914C8F3EA94E1E0F0E015
:10081000EC0FFD1FEE0DF11D808190E0B30149D377
:10082000EE2099F705C080E290E0B30142D38A94AC
:100830008820C9F7B4CCF30166817781CB0161963A
:10084000E2E1FFC3382FE0E4FCE93197F1F7982F9C
:1008500092959F70292F2061662311F0906302C04A
:10086000922F9F7D95BB95E39A95F1F7AC98E0EABE
:10087000FFE03197F1F7832F8061662319F0832F12
:10088000806301C08F7D85BB85E38A95F1F7AC98C5
:1008900008951F93CF93DF93EC0110E003C01F5F17
:1008A00061E0D0DFFE01E10FF11D84918823B9F7EB
:1008B000DF91CF911F910895662319F48068C2DFFC
:1008C0000895613019F4806C60E0BCDF089580E425
:1008D00060E0B8DF8FEF61E0B5DF83E861E0B2DFB1
:1008E00087E861E0AFDF8FE861E0ACDF81E861E0DD
:1008F000A9DF81E861E0A6DF8FEF61E0A3DF88E494
:1009000060E0A0DF8CE761E09DDF81E861E09ADFD5
:1009100089E961E097DF88EF61E094DF89E961E0D0
:1009200091DF81E861E08EDF8CE761E08BDF80E5BD
:1009300060E088DF81E061E085DF83E061E082DF05
:1009400087E061E07FDF8FE061E07CDF8FE361E0E3
:1009500079DF8FE061E076DF87E061E073DF0895A3
:100960008A3019F480EC60E001C061E06BDF80E068
:1009700090E00895C09880E49CE9FC013197F1F77C
:10098000C09A0197F1F7089520E030E040E45CE977
:100990000AC0C298FA013197F1F7C29AFA01319769
:1009A000F1F72F5F3F4F2817390798F3089580B369
:1009B00090E081709070819902968699049687994B
:1009C000089608951F920F920FB60F9211248F93DD
:1009D0009F93AF93BF938091AA009091AB00A09199
:1009E000AC00B091AD000196A11DB11D8093AA008D
:1009F0009093AB00A093AC00B093AD00BF91AF91CA
:100A00009F918F910F900FBE0F901F9018951F927E
:100A10000F920FB60F9211248F9382E08093D7002C
:100A20008F910F900FBE0F901F9018951F920F92ED
:100A30000FB60F9211248F9383E08093D7008F918C
:100A40000F900FBE0F901F901895AF92BF92CF924C
:100A5000DF92EF92FF920F931F93CF93DF9387E084
:100A600087BB88B3856088BB82B38C6082BB88EE0D
:100A700093E020E931E0F9013197F1F70197D9F7D7
:100A80008FE384BB28EE33E040E951E0CA010197CF
:100A9000F1F721503040D1F782E185BB80E991E048
:100AA0000197F1F7AC9888EE93E020E931E0F90185
:100AB0003197F1F70197D9F788E260E0C3DE81E072
:100AC00060E0C0DE86E060E0BDDE8CE060E0BADEC3
:100AD00081E060E0B7DE81E060E0B4DE8BE990E0C9
:100AE0009093DB008093DA008EE290E0D2DE80E427
:100AF0008FBD8DE08EBD88E09DE39BBD8ABD87E004
:100B000083BF81E089BF8BB7806C8BBF85B7826064
:100B100085BF00D000D080E690E0ADB7BEB712969A
:100B20009C938E93119783E090E014969C938E9300
:100B30001397EBD1C0E0D0E00F900F900F900F9083
:100B400020E9E22E21E0F22E00E41CE992E7A92E32
:100B500090E0B92E8CE7C82E80E0D82E54C0F70163
:100B60003197F1F70197D9F7C098C8010197F1F7CC
:100B7000C09AC8010197F1F784EF91E0F70131972E
:100B8000F1F70197D9F720E030E00AC0C298C80118
:100B90000197F1F7C29AC8010197F1F72F5F3F4F14
:100BA0002C173D0798F384EF91E0F7013197F1F7A7
:100BB0000197D9F780E060E07FDE00D000D0EDB78C
:100BC000FEB7B282A182D483C3839FD10F900F90CE
:100BD0000F900F90ECDE00D000D0EDB7FEB731964D
:100BE000ADB7BEB71296DC92CE9211978283138274
:100BF0008CD121960F900F900F900F90C835D10592
:100C000010F0C0E0D0E088E893E1A9CF80E060E098
:100C100053DE00D000D089E890E0EDB7FEB79283B4
:100C2000818383E090E0948383836FD120E137E276
:100C30000F900F900F900F9040E951E0CA0101977B
:100C4000F1F721503040D1F708951F934EEA50E05C
:100C50002AE030E0FCD010E003C01F5F61E0F2DD6D
:100C6000E12FF0E0E255FF4F80818823B1F71F911B
:100C70000895283008F027E03327DA01990F311D55
:100C800087FD916000966105710539F432602E5F31
:100C90003D9330E32A95E1F708959F3F30F0803887
:100CA0007105610509F03C5F3C5F3D93913008F0B0
:100CB0008068911DDF93CF931F930F93FF92EF9264
:100CC000192F987F9695E92F96959695E90FFF270E
:100CD000E856FF4F99273327EE24FF24A701E701A9
:100CE00005900894079428F4360FE71EF81E491F54
:100CF000511D660F771F881F991F0694A1F7059055
:100D0000079428F4E70EF81E491F561FC11D770FE0
:100D1000881F991F661F0694A1F70590079428F471
:100D2000F80E491F561FC71FD11D880F991F661F38
:100D3000771F0694A1F70590079420F4490F561FDA
:100D4000C71FD81F990F661F771F881F0694A9F722
:100D500084911095177041F0D695C7955795479592
:100D6000F794E7941A95C1F7EEE3F0E068941590D4
:100D7000159135916591959105907FE27395E118F4
:100D8000F10A430B560BC90BD009C0F7E10CF11E59
:100D9000431F561FC91FD01D7EF4703311F48A956E
:100DA000E6CFE894015030F0080F0AF4002702174C
:100DB00008F4202F2395022F7A3328F079E37D93CE
:100DC0002A95E9F710C07D932A9589F606949795A0
:100DD0006795379517951794E118F10A430B560B51
:100DE000C90BD00998F023957E9173957A3308F05A
:100DF00070E37C932013B8F77E9170617D9330F09F
:100E0000839571E37D9370E32A95E1F71124EF90C8
:100E1000FF900F911F91CF91DF91992787FD9095BA
:100E20000895FC010590615070400110D8F780953D
:100E300090958E0F9F1F0895FC01615070400190A6
:100E40000110D8F7809590958E0F9F1F0895FA0195
:100E5000CF93FF93EF9322303CF125322CF5C22F34
:100E6000E894CA3049F497FB3EF4909580957095CC
:100E700061957F4F8F4F9F4F2C2F33274427552746
:100E8000FF93EF93F9D0EF91FF91605D6A330CF01F
:100E9000695D6193B901CA01605070408040904023
:100EA00059F716F4CDE2C19310828F919F91CF91A3
:100EB0009CC00F931F93CF93DF938C01EB018B8129
:100EC00081FF1BC082FF0DC02E813F818C819D81DF
:100ED0002817390764F4E881F9810193F983E883DD
:100EE00006C0E885F985802F0995892B31F48E811C
:100EF0009F8101969F838E8302C00FEF1FEFC80171
:100F0000DF91CF911F910F910895A0E0B0E0EAE842
:100F1000F7E08BC0FE013596619171918091DA0006
:100F20009091DB00AF0124D92096E2E09AC0FA014B
:100F3000AA27283051F1203181F1E8946F936E7F18
:100F40006E5F7F4F8F4F9F4FAF4FB1E03ED0B4E009
:100F50003CD0670F781F891F9A1FA11D680F791F4A
:100F60008A1F911DA11D6A0F711D811D911DA11D5B
:100F700020D009F468943F912AE0269F112430196B
:100F8000305D3193DEF6CF010895462F4770405D06
:100F90004193B3E00FD0C9F7F6CF462F4F70405DB5
:100FA0004A3318F0495D31FD4052419302D0A9F710
:100FB000EACFB4E0A6959795879577956795BA950A
:100FC000C9F700976105710508959B01AC010A2ED0
:100FD00006945795479537952795BA95C9F7620FA7
:100FE000731F841F951FA01D0895DC01FC01672F4E
:100FF00071917723E1F7329704C07C916D937083F0
:101000006291AE17BF07C8F308952F923F924F9297
:101010005F926F927F928F929F92AF92BF92CF9288
:10102000DF92EF92FF920F931F93CF93DF93CDB791
:10103000DEB7CA1BDB0B0FB6F894DEBF0FBECDBF09
:1010400009942A88398848885F846E847D848C84DA
:101050009B84AA84B984C884DF80EE80FD800C81E3
:101060001B81AA81B981CE0FD11D0FB6F894DEBFC6
:101070000FBECDBFED010895A1E21A2EAA1BBB1B26
:10108000FD010DC0AA1FBB1FEE1FFF1FA217B30754
:10109000E407F50720F0A21BB30BE40BF50B661F6A
:1010A000771F881F991F1A9469F76095709580952E
:1010B00090959B01AC01BD01CF010895F894FFCF3D
:1010C0000A44454255472056455253494F4E202524
:1010D0006900693D2025692020200A0048433136F7
:1010E000313D2025692020200044454255472056A7
:1010F000455253494F4E2025690A00000000020066
:0A110000000000B004000000000031
:00000001FF
